{
  "_format": "hh-sol-artifact-1",
  "contractName": "Tradetoken",
  "sourceName": "contracts/Tradetoken.sol",
  "abi": [
    {
      "inputs": [],
      "stateMutability": "nonpayable",
      "type": "constructor"
    },
    {
      "inputs": [
        {
          "internalType": "address",
          "name": "sender",
          "type": "address"
        },
        {
          "internalType": "uint256",
          "name": "amountgot",
          "type": "uint256"
        }
      ],
      "name": "createTrade",
      "outputs": [],
      "stateMutability": "nonpayable",
      "type": "function"
    },
    {
      "inputs": [],
      "name": "getrecenttransaction",
      "outputs": [
        {
          "internalType": "uint256",
          "name": "",
          "type": "uint256"
        }
      ],
      "stateMutability": "view",
      "type": "function"
    },
    {
      "inputs": [
        {
          "internalType": "uint256",
          "name": "tradeIdgiven",
          "type": "uint256"
        }
      ],
      "name": "getspecificTrade",
      "outputs": [
        {
          "internalType": "uint256",
          "name": "tradeId",
          "type": "uint256"
        },
        {
          "internalType": "address",
          "name": "from",
          "type": "address"
        },
        {
          "internalType": "address",
          "name": "to",
          "type": "address"
        },
        {
          "internalType": "uint256",
          "name": "amount",
          "type": "uint256"
        },
        {
          "internalType": "bool",
          "name": "status",
          "type": "bool"
        },
        {
          "internalType": "uint256",
          "name": "timestamp",
          "type": "uint256"
        }
      ],
      "stateMutability": "view",
      "type": "function"
    },
    {
      "inputs": [],
      "name": "listalltrades",
      "outputs": [
        {
          "components": [
            {
              "internalType": "uint256",
              "name": "tradeId",
              "type": "uint256"
            },
            {
              "internalType": "address",
              "name": "from",
              "type": "address"
            },
            {
              "internalType": "address",
              "name": "to",
              "type": "address"
            },
            {
              "internalType": "uint256",
              "name": "amount",
              "type": "uint256"
            },
            {
              "internalType": "bool",
              "name": "status",
              "type": "bool"
            },
            {
              "internalType": "uint256",
              "name": "timestamp",
              "type": "uint256"
            }
          ],
          "internalType": "struct Tradetoken.TradeData[]",
          "name": "",
          "type": "tuple[]"
        }
      ],
      "stateMutability": "view",
      "type": "function"
    },
    {
      "inputs": [
        {
          "internalType": "uint256",
          "name": "tradeIdSent",
          "type": "uint256"
        }
      ],
      "name": "settleTrade",
      "outputs": [],
      "stateMutability": "nonpayable",
      "type": "function"
    }
  ],
  "bytecode": "0x608060405234801561001057600080fd5b506001600281905550610b19806100286000396000f3fe608060405234801561001057600080fd5b50600436106100575760003560e01c80630c98f22e1461005c5780630fe90dd01461007857806373422d931461009657806398424a1a146100b25780639d6b9a47146100e7575b600080fd5b6100766004803603810190610071919061070e565b610105565b005b6100806103a7565b60405161008d91906108b1565b60405180910390f35b6100b060048036038101906100ab91906108d3565b6104eb565b005b6100cc60048036038101906100c791906108d3565b61051c565b6040516100de9695949392919061092d565b60405180910390f35b6100ef61065f565b6040516100fc919061098e565b60405180910390f35b60008103610148576040517f08c379a000000000000000000000000000000000000000000000000000000000815260040161013f90610a2c565b60405180910390fd5b60006040518060c0016040528060025481526020013373ffffffffffffffffffffffffffffffffffffffff1681526020018473ffffffffffffffffffffffffffffffffffffffff1681526020018381526020016000151581526020014281525090508060008060025481526020019081526020016000206000820151816000015560208201518160010160006101000a81548173ffffffffffffffffffffffffffffffffffffffff021916908373ffffffffffffffffffffffffffffffffffffffff16021790555060408201518160020160006101000a81548173ffffffffffffffffffffffffffffffffffffffff021916908373ffffffffffffffffffffffffffffffffffffffff1602179055506060820151816003015560808201518160040160006101000a81548160ff02191690831515021790555060a0820151816005015590505060018190806001815401808255809150506001900390600052602060002090600602016000909190919091506000820151816000015560208201518160010160006101000a81548173ffffffffffffffffffffffffffffffffffffffff021916908373ffffffffffffffffffffffffffffffffffffffff16021790555060408201518160020160006101000a81548173ffffffffffffffffffffffffffffffffffffffff021916908373ffffffffffffffffffffffffffffffffffffffff1602179055506060820151816003015560808201518160040160006101000a81548160ff02191690831515021790555060a08201518160050155505060016002600082825461039b9190610a7b565b92505081905550505050565b60606001805480602002602001604051908101604052809291908181526020016000905b828210156104e257838290600052602060002090600602016040518060c0016040529081600082015481526020016001820160009054906101000a900473ffffffffffffffffffffffffffffffffffffffff1673ffffffffffffffffffffffffffffffffffffffff1673ffffffffffffffffffffffffffffffffffffffff1681526020016002820160009054906101000a900473ffffffffffffffffffffffffffffffffffffffff1673ffffffffffffffffffffffffffffffffffffffff1673ffffffffffffffffffffffffffffffffffffffff168152602001600382015481526020016004820160009054906101000a900460ff16151515158152602001600582015481525050815260200190600101906103cb565b50505050905090565b600160008083815260200190815260200160002060040160006101000a81548160ff02191690831515021790555050565b60008060008060008060008060008981526020019081526020016000206040518060c0016040529081600082015481526020016001820160009054906101000a900473ffffffffffffffffffffffffffffffffffffffff1673ffffffffffffffffffffffffffffffffffffffff1673ffffffffffffffffffffffffffffffffffffffff1681526020016002820160009054906101000a900473ffffffffffffffffffffffffffffffffffffffff1673ffffffffffffffffffffffffffffffffffffffff1673ffffffffffffffffffffffffffffffffffffffff168152602001600382015481526020016004820160009054906101000a900460ff16151515158152602001600582015481525050905080600001519650806020015195508060400151945080606001519350806080015192508060a0015191505091939550919395565b600060016002546106709190610aaf565b905090565b600080fd5b600073ffffffffffffffffffffffffffffffffffffffff82169050919050565b60006106a58261067a565b9050919050565b6106b58161069a565b81146106c057600080fd5b50565b6000813590506106d2816106ac565b92915050565b6000819050919050565b6106eb816106d8565b81146106f657600080fd5b50565b600081359050610708816106e2565b92915050565b6000806040838503121561072557610724610675565b5b6000610733858286016106c3565b9250506020610744858286016106f9565b9150509250929050565b600081519050919050565b600082825260208201905092915050565b6000819050602082019050919050565b610783816106d8565b82525050565b6107928161069a565b82525050565b60008115159050919050565b6107ad81610798565b82525050565b60c0820160008201516107c9600085018261077a565b5060208201516107dc6020850182610789565b5060408201516107ef6040850182610789565b506060820151610802606085018261077a565b50608082015161081560808501826107a4565b5060a082015161082860a085018261077a565b50505050565b600061083a83836107b3565b60c08301905092915050565b6000602082019050919050565b600061085e8261074e565b6108688185610759565b93506108738361076a565b8060005b838110156108a457815161088b888261082e565b975061089683610846565b925050600181019050610877565b5085935050505092915050565b600060208201905081810360008301526108cb8184610853565b905092915050565b6000602082840312156108e9576108e8610675565b5b60006108f7848285016106f9565b91505092915050565b610909816106d8565b82525050565b6109188161069a565b82525050565b61092781610798565b82525050565b600060c0820190506109426000830189610900565b61094f602083018861090f565b61095c604083018761090f565b6109696060830186610900565b610976608083018561091e565b61098360a0830184610900565b979650505050505050565b60006020820190506109a36000830184610900565b92915050565b600082825260208201905092915050565b7f506c6561736520656e74657220612076616c756520677265617465722074686160008201527f6e20300000000000000000000000000000000000000000000000000000000000602082015250565b6000610a166023836109a9565b9150610a21826109ba565b604082019050919050565b60006020820190508181036000830152610a4581610a09565b9050919050565b7f4e487b7100000000000000000000000000000000000000000000000000000000600052601160045260246000fd5b6000610a86826106d8565b9150610a91836106d8565b9250828201905080821115610aa957610aa8610a4c565b5b92915050565b6000610aba826106d8565b9150610ac5836106d8565b9250828203905081811115610add57610adc610a4c565b5b9291505056fea2646970667358221220d275c6e35222413c79c1567e0647dc40aa279ab20a131dec0af248f4d73cf1ab64736f6c63430008110033",
  "linkReferences": {},
  "deployedLinkReferences": {}
}