{
  "_format": "hh-sol-artifact-1",
  "contractName": "Tradetoken",
  "sourceName": "contracts/Tradetoken.sol",
  "abi": [
    {
      "inputs": [],
      "stateMutability": "nonpayable",
      "type": "constructor"
    },
    {
      "inputs": [
        {
          "internalType": "address",
          "name": "sender",
          "type": "address"
        },
        {
          "internalType": "uint256",
          "name": "amountgot",
          "type": "uint256"
        }
      ],
      "name": "createTrade",
      "outputs": [
        {
          "internalType": "uint256",
          "name": "tradeId",
          "type": "uint256"
        }
      ],
      "stateMutability": "nonpayable",
      "type": "function"
    },
    {
      "inputs": [
        {
          "internalType": "uint256",
          "name": "tradeIdgiven",
          "type": "uint256"
        }
      ],
      "name": "getspecificTrade",
      "outputs": [
        {
          "internalType": "uint256",
          "name": "tradeId",
          "type": "uint256"
        },
        {
          "internalType": "address",
          "name": "from",
          "type": "address"
        },
        {
          "internalType": "address",
          "name": "to",
          "type": "address"
        },
        {
          "internalType": "uint256",
          "name": "amount",
          "type": "uint256"
        },
        {
          "internalType": "bool",
          "name": "status",
          "type": "bool"
        },
        {
          "internalType": "uint256",
          "name": "timestamp",
          "type": "uint256"
        }
      ],
      "stateMutability": "view",
      "type": "function"
    },
    {
      "inputs": [],
      "name": "listalltrades",
      "outputs": [
        {
          "components": [
            {
              "internalType": "uint256",
              "name": "tradeId",
              "type": "uint256"
            },
            {
              "internalType": "address",
              "name": "from",
              "type": "address"
            },
            {
              "internalType": "address",
              "name": "to",
              "type": "address"
            },
            {
              "internalType": "uint256",
              "name": "amount",
              "type": "uint256"
            },
            {
              "internalType": "bool",
              "name": "status",
              "type": "bool"
            },
            {
              "internalType": "uint256",
              "name": "timestamp",
              "type": "uint256"
            }
          ],
          "internalType": "struct Tradetoken.TradeData[]",
          "name": "",
          "type": "tuple[]"
        }
      ],
      "stateMutability": "view",
      "type": "function"
    },
    {
      "inputs": [
        {
          "internalType": "uint256",
          "name": "tradeIdSent",
          "type": "uint256"
        }
      ],
      "name": "settleTrade",
      "outputs": [],
      "stateMutability": "nonpayable",
      "type": "function"
    }
  ],
  "bytecode": "0x608060405234801561001057600080fd5b506001600281905550610b02806100286000396000f3fe608060405234801561001057600080fd5b506004361061004c5760003560e01c80630c98f22e146100515780630fe90dd01461008157806373422d931461009f57806398424a1a146100bb575b600080fd5b61006b600480360381019061006691906106f7565b6100f0565b6040516100789190610746565b60405180910390f35b6100896103a6565b60405161009691906108c4565b60405180910390f35b6100b960048036038101906100b491906108e6565b6104ea565b005b6100d560048036038101906100d091906108e6565b61051b565b6040516100e796959493929190610931565b60405180910390f35b6000808203610134576040517f08c379a000000000000000000000000000000000000000000000000000000000815260040161012b90610a15565b60405180910390fd5b60006040518060c0016040528060025481526020013373ffffffffffffffffffffffffffffffffffffffff1681526020018573ffffffffffffffffffffffffffffffffffffffff1681526020018481526020016000151581526020014281525090508060008060025481526020019081526020016000206000820151816000015560208201518160010160006101000a81548173ffffffffffffffffffffffffffffffffffffffff021916908373ffffffffffffffffffffffffffffffffffffffff16021790555060408201518160020160006101000a81548173ffffffffffffffffffffffffffffffffffffffff021916908373ffffffffffffffffffffffffffffffffffffffff1602179055506060820151816003015560808201518160040160006101000a81548160ff02191690831515021790555060a0820151816005015590505060018190806001815401808255809150506001900390600052602060002090600602016000909190919091506000820151816000015560208201518160010160006101000a81548173ffffffffffffffffffffffffffffffffffffffff021916908373ffffffffffffffffffffffffffffffffffffffff16021790555060408201518160020160006101000a81548173ffffffffffffffffffffffffffffffffffffffff021916908373ffffffffffffffffffffffffffffffffffffffff1602179055506060820151816003015560808201518160040160006101000a81548160ff02191690831515021790555060a0820151816005015550506001600260008282546103879190610a64565b92505081905550600160025461039d9190610a98565b91505092915050565b60606001805480602002602001604051908101604052809291908181526020016000905b828210156104e157838290600052602060002090600602016040518060c0016040529081600082015481526020016001820160009054906101000a900473ffffffffffffffffffffffffffffffffffffffff1673ffffffffffffffffffffffffffffffffffffffff1673ffffffffffffffffffffffffffffffffffffffff1681526020016002820160009054906101000a900473ffffffffffffffffffffffffffffffffffffffff1673ffffffffffffffffffffffffffffffffffffffff1673ffffffffffffffffffffffffffffffffffffffff168152602001600382015481526020016004820160009054906101000a900460ff16151515158152602001600582015481525050815260200190600101906103ca565b50505050905090565b600160008083815260200190815260200160002060040160006101000a81548160ff02191690831515021790555050565b60008060008060008060008060008981526020019081526020016000206040518060c0016040529081600082015481526020016001820160009054906101000a900473ffffffffffffffffffffffffffffffffffffffff1673ffffffffffffffffffffffffffffffffffffffff1673ffffffffffffffffffffffffffffffffffffffff1681526020016002820160009054906101000a900473ffffffffffffffffffffffffffffffffffffffff1673ffffffffffffffffffffffffffffffffffffffff1673ffffffffffffffffffffffffffffffffffffffff168152602001600382015481526020016004820160009054906101000a900460ff16151515158152602001600582015481525050905080600001519650806020015195508060400151945080606001519350806080015192508060a0015191505091939550919395565b600080fd5b600073ffffffffffffffffffffffffffffffffffffffff82169050919050565b600061068e82610663565b9050919050565b61069e81610683565b81146106a957600080fd5b50565b6000813590506106bb81610695565b92915050565b6000819050919050565b6106d4816106c1565b81146106df57600080fd5b50565b6000813590506106f1816106cb565b92915050565b6000806040838503121561070e5761070d61065e565b5b600061071c858286016106ac565b925050602061072d858286016106e2565b9150509250929050565b610740816106c1565b82525050565b600060208201905061075b6000830184610737565b92915050565b600081519050919050565b600082825260208201905092915050565b6000819050602082019050919050565b610796816106c1565b82525050565b6107a581610683565b82525050565b60008115159050919050565b6107c0816107ab565b82525050565b60c0820160008201516107dc600085018261078d565b5060208201516107ef602085018261079c565b506040820151610802604085018261079c565b506060820151610815606085018261078d565b50608082015161082860808501826107b7565b5060a082015161083b60a085018261078d565b50505050565b600061084d83836107c6565b60c08301905092915050565b6000602082019050919050565b600061087182610761565b61087b818561076c565b93506108868361077d565b8060005b838110156108b757815161089e8882610841565b97506108a983610859565b92505060018101905061088a565b5085935050505092915050565b600060208201905081810360008301526108de8184610866565b905092915050565b6000602082840312156108fc576108fb61065e565b5b600061090a848285016106e2565b91505092915050565b61091c81610683565b82525050565b61092b816107ab565b82525050565b600060c0820190506109466000830189610737565b6109536020830188610913565b6109606040830187610913565b61096d6060830186610737565b61097a6080830185610922565b61098760a0830184610737565b979650505050505050565b600082825260208201905092915050565b7f506c6561736520656e74657220612076616c756520677265617465722074686160008201527f6e20300000000000000000000000000000000000000000000000000000000000602082015250565b60006109ff602383610992565b9150610a0a826109a3565b604082019050919050565b60006020820190508181036000830152610a2e816109f2565b9050919050565b7f4e487b7100000000000000000000000000000000000000000000000000000000600052601160045260246000fd5b6000610a6f826106c1565b9150610a7a836106c1565b9250828201905080821115610a9257610a91610a35565b5b92915050565b6000610aa3826106c1565b9150610aae836106c1565b9250828203905081811115610ac657610ac5610a35565b5b9291505056fea2646970667358221220465347fd20e4cde74cfc5ee1b0e0e6df9ba4183d316f2e47b2d9b8c091a4e8fa64736f6c63430008110033",
  "linkReferences": {},
  "deployedLinkReferences": {}
}